:020000040800F2
:1000000050FF02207D0200085B3C000887020008C8
:10001000573C0008F50E0008315F000800000000A2
:10002000000000000000000000000000C501000802
:10003000950F00080000000019020008BB530008DB
:10004000970200089702000897020008970200082C
:10005000970200089702000897020008970200081C
:10006000970200089702000897020008970200080C
:1000700097020008970200089702000897020008FC
:10008000F90E00080D0F00089702000897020008FB
:1000900097020008970200089702000897020008DC
:1000A00097020008970200089702000897020008CC
:1000B0009702000897020008CD5500089702000833
:1000C00097020008970200089702000897020008AC
:1000D0009702000897020008095F000897020008CD
:1000E000970200089702000897020008970200088C
:1000F000970200089702000897020008970200087C
:10010000970200089702000897020008970200086B
:10011000970200083D59000897020008970200085E
:1001200097020008210F0008350F00089702000809
:10013000970200082510000897020008970200089F
:10014000970200089702000897020008970200082B
:1001500097020008450F0008590F00081D5F0008AE
:10016000970200089702000897020008970200080B
:10017000970200089702000897020008000000009C
:1001800097020008970200089702000897020008EB
:1001900097020008970200089702000897020008DB
:1001A000970200089702000897020008DFF810D0B5
:1001B00000F04EFD004800471FF30008AFF3008039
:1001C00050FF02202A4B19680868B0E8F04F80F30E
:1001D0000988BFF36F8F4FF0000080F311887047DC
:1001E0000000000006480068006880F3088862B6D6
:1001F00061B6BFF34F8FBFF36F8F00DF00BF00BF4B
:1002000008ED00E0DFF80C00016841F470010160C6
:10021000704700BF88ED00E0EFF30980BFF36F8FF8
:10022000134B1A681EF0100F08BF20ED108A20E94A
:10023000F04F106008B44FF0500080F31188BFF306
:100240004F8FBFF36F8F1CF0DBFD4FF0000080F38A
:10025000118808BC19680868B0E8F04F1EF0100F4C
:1002600008BFB0EC108A80F30988BFF36F8F704726
:1002700054050020EFF305807047000006488047D2
:1002800006480047FEE7FEE7FEE7FEE7FEE7FEE77B
:10029000FEE7FEE7FEE7FEE7F1530008AD010008C8
:1002A0002DE9F05F0546002092469B4688460646AB
:1002B000814640241BE0284641464746224600F03E
:1002C0005CFB53465A46C01A914110D3114618465A
:1002D000224600F043FB2D1A67EB01084F462246E9
:1002E0000120002100F03AFB17EB00094E41201ECF
:1002F000A4F10104DFDC484631462A464346BDE806
:10030000F09F0000004870470CEA0108A0F141018D
:10031000192900D8203070470649074A0868504319
:1003200043F23902104408604008704701490860F0
:1003300070470000280700206D4EC64138B5D0E94F
:100340000221491E01EB410102EBC1014268C1EBF0
:10035000011102EB81010268C1EB011102EB810284
:10036000D0E9043101EB410103EB81013023A1F518
:10037000527191FBF3F4174D6C4302EBC41291FBE5
:10038000F3F403FB141100921A2902DB124B1A44F6
:1003900000920C2291FBF2F3104C6343009C04EB9F
:1003A000C313009391FBF2F302FB13110C4A08E014
:1003B000491E40F2A324535C6343009C04EBC31327
:1003C00000930029F4DC0146684600F0FFFA00982B
:1003D00038BD00003F0C0F008051010067C20300D0
:1003E00010EA010810B5431A934209D283188818FD
:1003F00003E010F8011D03F8011D521EF9D210BDD3
:1004000040EA01039B0703D009E008C9121F08C096
:10041000042AFAD203E011F8013B00F8013B521E16
:10042000F9D210BDD2B201E000F8012B491EFBD277
:1004300070470022F6E710B513460A4604461946EF
:10044000FFF7F0FF204610BD10B5044604E00B781E
:1004500000F8013B03B1491C521EF8D2204610BDE2
:10046000CAB2401E10F8011F8A4202D00029F9D1F9
:1004700000207047421C10F8011B0029FBD1801A94
:10048000704710B5002200E0521C835C8C5CA342D4
:1004900001D1002BF8D1D8B2E1B2401A10BD30B56D
:1004A00004460020034600E05B1C934203D2E05C5C
:1004B000CD5C401BF8D030BD034611F8012B00F88D
:1004C000012B002AF9D11846704730B505460020A7
:1004D000034600E05B1C934205D2EC5CC85C201A2A
:1004E00001D1002CF6D130BD70B5064605F078FD7F
:1004F000046805460A220021304600F0ADFA2C605F
:1005000070BD2DE9FE4F804681EA0300C00F0C4606
:10051000009021F0004123F00045B8EB0200A94112
:1005200005D24046214690461C460B46024623F023
:100530000040104347D0270DC7F30A00C3F30A5108
:100540000290401A019040286BDAC3F3130040F484
:10055000801B0098924620B10023D2EB030A63EB84
:100560000B0B01985946C0F14002504600F0F6F9D5
:1005700006460D4650465946019A00F00EFA10EB19
:1005800008006141002487EA115284EAE7731A43A4
:1005900040D0009A62B3019A012A4FEA075215DC53
:1005A000001B61EB02014FF0004202EA0752CDE965
:1005B0000042001C41F5801132462B4600F0CAFA79
:1005C00003B0BDE8F08F40462146F9E7001B61EB20
:1005D0000201001C41F5801300185B412018A2F5B0
:1005E000001747EB030140EAD570B6196D4111E0E1
:1005F0006D084FEA360645EAC0754FEA0752001B00
:1006000061EB0201001C41F5801149084FEA3000FE
:100610000019514132462B4603B0BDE8F04F00F0BF
:100620008ABA0098012240000023D0EB020263EB5B
:10063000E073009821464FEAE074B8EB000061EBEC
:100640000401E9E783F000435BE781F0004158E7EC
:100650002DE9FE4F81EA030404F0004421F000413B
:1006600000944FF0000B23F0004350EA01045ED0E9
:1006700052EA03045BD0C3F30A54C1F30A552C4475
:10068000A4F2F3340194A0FB0254C1F3130141F42A
:100690008011C3F3130343F4801301FB024400FBF6
:1006A000034E840A970A44EA815447EA8357A4FB1D
:1006B000076802958D0A05FB07854FEA932C04FB1A
:1006C0000C542705029D4FEA065847EA1637B5EB4A
:1006D00008056EEB070C870E920E47EA811742EA77
:1006E0008312A7FB0201B6EB0B0164EB00042B0D98
:1006F00043EA0C335E1844EB1C50DA465146E7FBE4
:100700000201C5F313044FEA0B3343EA14534FEAD3
:100710000432019C43EA0603A4F10C040294009CF9
:10072000CDE900B400F016FA03B0BDE8F08F002068
:100730000146F9E72DE9F04D81EA030404F0004B8E
:1007400021F0004514464FF0000A23F0004150EA22
:10075000050220D054EA01021DD0C5F30A57024613
:10076000C5F31303C1F31300C1F30A5640F4801517
:1007700043F48013A7EB0608101BD64608F2FD3899
:1007800073EB050002D308F1010801E092185B4108
:10079000B8F1000F03DA00200146BDE8F08D00201B
:1007A0004FF48011064684460EE0171B73EB0507D5
:1007B00005D3121B63EB050306434CEA010C490801
:1007C0004FEA300092185B4150EA0107EDD152EA3E
:1007D000030012D082EA040083EA0501084305D031
:1007E000101BAB4106D20122002306E000224FF08D
:1007F000004302E06FF0010253101AEB06004CEBCD
:10080000085110EB0A0041EB0B01BDE8F04D00F080
:1008100092B90EB5C10F80EAE0700844CA07002102
:1008200040F233438DE80E000A460B4600F092F981
:1008300003B000BD70B5C1F30A5201F000450024B9
:10084000C1F3130140F2FF3341F480119A4201DAFF
:10085000002070BD40F233439A42A2F2334203DCDF
:10086000524200F08AF800E090402C43F1D0404220
:1008700070BD00F0004230F000400AD0C10D01F51B
:100880006071C0F3160042EA0151C20840071143EB
:10089000704700200146704730B5041E71F1000416
:1008A00004DB4FF00044404264EB0101141E73F17D
:1008B000000405DB1C464FF00043524263EB040387
:1008C0008B4208BF824230BD30B5041E71F1000476
:1008D00004DB4FF00044404264EB0101141E73F14D
:1008E000000405DB1C464FF00043524263EB040357
:1008F000994208BF904230BD01F0004330B421F06E
:10090000004150EA010206D00A0DA2F56072C1F35F
:100910001301002A02DC30BC00207047440F44EA77
:10092000C104C100E01830BC00EBC25000F0CCB8EC
:1009300030B50B46014600202022012409E021FAAF
:1009400002F59D4205D303FA02F5491B04FA02F5AC
:100950002844151EA2F10102F1DC30BD202A04DB7F
:10096000203A00FA02F1002070479140C2F12003C2
:1009700020FA03F3194390407047202A04DB203A01
:1009800021FA02F00021704721FA02F3D040C2F1AF
:1009900020029140084319467047202A06DBCB17F6
:1009A000203A41FA02F043EAE07306E041FA02F32A
:1009B000D040C2F120029140084319467047000020
:1009C000014900F003B8000024DF022010B50068E0
:1009D0003C22B0FBF2F302FB1303B0FBF2F00B601E
:1009E000B0FBF2F302FB1303B0FBF2F018224B60F2
:1009F000B0FBF2F302FB1303B0FBF2F0021D8B60BD
:100A00000723B2FBF3F403FB1422800040F2B5533A
:100A100000F66C308A61B0FBF3F2B0FBF3F403FB39
:100A20001400443280084A61C8613B2802D392070F
:100A300000D0401C0022074C13460A61E25C82424F
:100A400003D8801A5B1C0B61F8E7401CC86008469D
:100A500010BD000028EA01082DE9F04791460F4635
:100A600080460446002614F8015B2DB1FFF74AFCCE
:100A70000068405DC007F6D12B2D02D02D2D18D077
:100A8000641E4A463946204600F0F4F827B139681A
:100A9000A14201D1C7F8008071054FF002040BD5C7
:100AA0004042002803DD05F09BFA0460A007BDE882
:100AB000F08746F48066E4E70028F8DA05F090FA5B
:100AC00004606FF00040F2E70029A8BF7047401CA7
:100AD000490008BF20F00100704710B4B0FA80FC54
:100AE00000FA0CF050EA010404BF10BC704749B191
:100AF000CCF1200421FA04F411FA0CF118BF012101
:100B000021430843A3EB0C01CB1D4FEA00614FEAE0
:100B1000102042BF002010BC704700EBC3501044AF
:100B20000029A4BF10BC7047401C490008BF20F03A
:100B3000010010BC704710B5141E73F1000408DAF0
:100B4000401C41F1000192185B411A4301D120F091
:100B5000010010BD2DE9F04D92469B4611B1B1FA4E
:100B600081F202E0B0FA80F220329046FFF7F6FE02
:100B700004460F4640EA0A0041EA0B0153465A4632
:100B8000084313D0114653EA010019D0C8F14002BE
:100B90005046FFF7F2FE05460E465046594642467D
:100BA000FFF7DCFE084305D0012004E0204639466B
:100BB000BDE8F08D0020054346EAE0762C4337433C
:100BC0000A986305E40AA0EB08000022FD0A44EA43
:100BD00047540A3002D500200146E9E70105101903
:100BE0006941DDE9084500196941BDE8F04DA2E71A
:100BF00070B521F0004303430CD0C1F30A55002423
:100C0000D5EB040564EB0403D617AD1AB34102DB40
:100C10000020014670BD201841EB025170BDC1F3A8
:100C20000A52C1F3130140F2FF3341F480119A429A
:100C300002DA00200146704740F233439A42A2F2A2
:100C4000334202DC5242FFF798BEFFF787BE000036
:100C5000064C074D06E0E06840F0010394E8070009
:100C600098471034AC42F6D3FFF7A4FA4CF50108CC
:100C70007CF501082DE9F05F8246007800271546D3
:100C80008B460AF10104B946302801D09DB113E02A
:100C900014F8010B0127782803D0582801D045B15A
:100CA0000AE00DB1102D07D10027102514F8010B13
:100CB00002E0082500E00A250026B0460EE005FB0C
:100CC000080005FB06F1012701EB10461FFA80F82A
:100CD000B6F5803F00D3B94614F8010B294600F061
:100CE00069F80028EBDABBF1000F05D00FB1641EE4
:100CF00000E05446CBF80040B9F1000F06D005F0F3
:100D00006FF902210160C81EBDE8F09F48EA064065
:100D1000FAE72DE9F04D00231A461B1A8A4103DB3E
:100D200000200146BDE8F08DC1F30A52C1F3130162
:100D300041F480154FF0000BD10702D100186D412E
:100D4000521E0027044640F2FF11384601EB620AAA
:100D50003E468046024600204FF48011FFF70DFE0C
:100D6000C2197141BB1846EB0100B4EB030C75EBE3
:100D7000000C04D3E41A65EB000517460E4624194F
:100D800008F101006D4180463428E3DDF91946EB96
:100D90000600091BA84103D24FF0FF32134601E0C1
:100DA000002213461BEB070046EB0A51BDE8F04D4D
:100DB000FFF7C1BE3A2800D2303820F02002412A85
:100DC00001D3A2F13700884201D34FF0FF307047C2
:100DD00070B58C1810F8015B15F0070301D110F8FD
:100DE000013B2A1106D110F8012B03E010F8016B2A
:100DF00001F8016B5B1EF9D12B0705D40023521EAD
:100E00000DD401F8013BFAE710F8013BCB1A921C14
:100E100003E013F8015B01F8015B521EF9D5A14212
:100E2000D8D3002070BD00001CB5234800F012FD8F
:100E300000F088FA2148006840F001001F4908606E
:100E400002208DF8000000208DF801008DF80200CE
:100E50008DF803008DF804008DF805001848164938
:100E6000086001204860002113480182C0F814D0B6
:100E7000012181610021C1614FF400010162491229
:100E80008160C910C16000F0B3FD04462CB10DA211
:100E900004211348006806F081F90823114A124919
:100EA000054800F095FC0823104A1149024800F05B
:100EB00049FC20461CBD00005C1F00200090024041
:100EC00000800240657468206861726477617265B1
:100ED00020696E6974206661696C642E2E2E0A008A
:100EE0001400002044510020A4200020A421002050
:100EF000A41F002000BFFEE710B50349D1F8A000F1
:100F000000F09CFA10BD0000E801002010B5034974
:100F1000D1F89C0000F092FA10BD0000E80100201A
:100F200010B50349D1F8800100F088FA10BD000027
:100F3000E801002010B50249886E00F07FFA10BD6C
:100F4000E801002010B50349D1F87C0100F076FAE1
:100F500010BD0000E801002010B50249486E00F005
:100F60006DFA10BDE801002030B50468246824F44F
:100F7000802405682C60046863608468402C04D178
:100F80000468A2600468E16003E00468A16004688A
:100F9000E26030BD7047016801F58051896941F018
:100FA0000202016801F580518A617047016801F50C
:100FB0008051896941F40052016801F580518A61CC
:100FC0007047000008B508490968C9084FF47A72EB
:100FD000B1FBF2F14143009100BF00BF00994A1EEE
:100FE00000920029F9D108BD8C04002038B50446D0
:100FF00000200090206800F58050806940F4801146
:10100000206800F580508161206800F5805080697B
:1010100000900120FFF7D6FF0099206800F580506E
:10102000816138BD38B500BF5021EFF3118081F3E5
:101030001188BFF34F8FBFF36F8F00BF04460D4879
:1010400000F083FC002000906A460121094800F06E
:10105000DDFE009800F0040018B107480EF0BAFF5A
:1010600002E005480EF08AFF00BF84F3118800BF3C
:1010700038BD00005C1F0020E8DE022030B50346CA
:101080001479557944EA0520084C0C442064D4783E
:101090002406957844EA0544557844EA05241578F1
:1010A00044EA0500014C0C44606430BD00800240FD
:1010B00070B5AEB004460E46002526B14FF400616F
:1010C000E160C900A160002011901290139014906B
:1010D00015901690E06918B94FF48060179001E000
:1010E000002017904FF400701890002019901A906B
:1010F0001B901C901D9040201E9000201F9020905F
:101100002190229023902490259026908020279053
:101110000020289029902A902B902C902D902068C8
:10112000056871480540DDE911010843139908433A
:1011300014990843A1680843159908431699084370
:10114000E168084317990843189908431999084317
:101150001A9908431B9908430543206805602068D5
:101160000568012000F0DAFA20680560DDE91C015D
:1011700008431E9908431F99084320990843219961
:10118000084322990843239908432168486020684E
:101190004568012000F0C2FA206845602498216863
:1011A000886025982168C860206885694FF641707D
:1011B0000540DDE9261040EA0140289908432999B5
:1011C00008432A9908432B99084305432068856101
:1011D00020688569012000F0A1FA20688561DDE9B9
:1011E0002C0108432168C8612068C569012000F00E
:1011F00095FA2068C561002001904FF000700290C0
:10120000002003904FF400100490002005900690F9
:101210000790089004200990C0050A9040120B9096
:1012200080010C9040120D9080200E9000200F90B5
:101230001090206800F5805085692C480540DDE954
:101240000101084303990843049908430599084399
:1012500006990843079908430899084309990843E0
:101260000543206800F580508561206800F58050B6
:101270008569012000F052FA206800F580508561F0
:10128000DDE90A0108430C9908430D9908430E99BA
:1012900008430F9940EA81001099084340F4000187
:1012A000206800F580500160206800F580500568D6
:1012B000012000F033FA206800F580500560A06935
:1012C000012809D1206800F58050C0690849084309
:1012D000216801F58051C861002120466269FFF74D
:1012E000CDFE2EB070BD00000F8120FF233FDEF841
:1012F0004000010038B504460020009020680068D6
:1013000040F0040021680860206800680090012017
:10131000FFF758FE00982168086038BD38B50446CC
:10132000002000902068006840F0080021680860F4
:101330002068006800900120FFF744FE00982168B3
:10134000086038BD10B5052000F0E8F9052000F070
:10135000E5F910BD08B500BF002000902C480068DA
:1013600040F080002A4908600846006800F08000CC
:10137000009000BF00BF00BF00200090084600683A
:1013800040F0040008600846006800F00400009087
:1013900000BF00BF00BF002000900846006840F07A
:1013A000010008600846006800F00100009000BFDE
:1013B00000BF00BF002000900846006840F0020017
:1013C00008600846006800F00200009000BF00BFFF
:1013D00000BF002000900846006840F04000086010
:1013E0000846006800F04000009000BF00BF00BF4A
:1013F000002000900846006840F4807008600846AD
:10140000006800F48070009000BF00BF08BD0000BD
:1014100030380240014691F83500022803D0802080
:10142000486501207047052081F83500086800688C
:1014300020F001000A6810600020F3E7F8B50446C8
:10144000002000908C4800684FF41651B0FBF1F773
:10145000A56D2E6894F85C1008208840304098B143
:101460002068006800F0040070B12068006820F077
:1014700004002168086094F85C1008208840A86087
:10148000606D40F00100606594F85C1001208840B8
:10149000304068B12068406900F0800040B194F8A5
:1014A0005C1001208840A860606D40F0020060651B
:1014B00094F85C1004208840304068B120680068CF
:1014C00000F0020040B194F85C1004208840A8604D
:1014D000606D40F00400606594F85C101020884056
:1014E000304078B32068006800F0080050B394F8EA
:1014F0005C1010208840A8602068006800F48020FC
:1015000080B12068006800F4002028B9206CC8B1C0
:101510002046216C884715E0A06C98B12046A16C4C
:1015200088470FE02068006800F4807028B92068C0
:10153000006820F0080021680860206C10B1204687
:10154000216C884794F85C102020884030400028A7
:1015500065D02068006800F0100000285FD094F883
:101560005C1020208840A86094F83500052828D118
:101570002068006820F01600216808602068406933
:1015800020F0800021684861206C08B9A06C28B167
:101590002068006820F008002168086094F85C105A
:1015A0003F208840A86000BF002084F8340000BFBE
:1015B000012084F83500206D10B12046216D884748
:1015C000F8BD2068006800F4802080B120680068C1
:1015D00000F4002028B9606C10B12046616C884787
:1015E0001DE0E06BD8B12046E16B884717E020682A
:1015F000006800F4807068B92068006820F010006E
:101600002168086000BF002084F8340000BF01207A
:1016100084F83500E06B10B12046E16B8847606DBF
:1016200038B3606D00F00100F0B1052084F835009A
:101630002068006820F001002168086000BF009861
:10164000401C0090B84200D905E02068006800F016
:1016500001000028F3D100BF00BF002084F834004F
:1016600000BF012084F83500E06C10B12046E16C29
:10167000884700BFA4E700008C0400202DE9F04754
:1016800004460D4616461F464FF00008D4F8589001
:1016900000BF94F83400012802D10220BDE8F08791
:1016A000012084F8340000BF94F8350001282BD1C4
:1016B000022084F83500002060653B46324629460A
:1016C0002046FFF751FC94F85C103F208840C9F891
:1016D00008002068006840F0160021680860206853
:1016E000406940F0800021684861206C28B1206882
:1016F000006840F00800216808602068006840F039
:1017000001002168086006E000BF002084F8340072
:1017100000BF4FF002084046C0E7000070B5044625
:1017200000F0C4FE06462546681C10B10448007847
:10173000054400BF00F0BAFE801BA842FAD370BD7A
:101740009804002070B504460D461646002200BFDE
:1017500094F84500012801D1022070BD012084F8D1
:10176000450000BF022084F84400A56200221FE06B
:1017700005EB42114FF00040086044F2F45048601D
:10178000C2EBC21000EB400006EB80008860A0694D
:10179000012803D1486820F000404860581E90425C
:1017A00004D905EB42102030C86000E0CD60521C27
:1017B0009A42DDD3206800F58050C560012084F88E
:1017C000440000BF002084F8450000BF00BFC4E70C
:1017D00070B504460D461646002200BF94F8450039
:1017E000012801D1022070BD012084F8450000BF0E
:1017F000022084F84400E56200221BE005EB421160
:101800004FF480100860C2EBC21000EB400006EB02
:1018100080008860E06918B9086840F440000860FA
:10182000581E904204D905EB42102030C86000E0F9
:10183000CD60521C9A42E1D3206800F580500561CA
:10184000012084F8440000BF002084F8450000BF58
:1018500000BFC8E710B50446022084F844002046C3
:1018600000F014FA002084F8440000BF84F845001A
:1018700000BF10BD10B5044603A201210548006851
:1018800005F08CFC10BD0000657468206572720A5A
:1018900000000000140000200146002200BF91F863
:1018A0004500012801D102207047012081F8450040
:1018B00000BF022081F84400886A006800F0004000
:1018C000002838D1886A006800F48070F0B1886B15
:1018D000401C8863886B012801D1886A08638B6A81
:1018E0004B63886A0068C0F30D40021FCA63086B2F
:1018F00083680B64886AC0688862012081F84400AC
:1019000000BF002081F8450000BFCDE7886A00686D
:1019100000F4007048B1886A086300234B63012318
:101920008B63886AC068886205E0886B401C8863A6
:10193000886AC0688862012081F8440000BF0020E6
:1019400081F8450000BF0120AEE710B504462068CD
:1019500000F58050406900F0400040280FD120463B
:1019600000F09EFA4021206800F58050416101207E
:1019700084F8440000BF002084F8450016E0206889
:1019800000F58050406900F0010078B1204600F079
:1019900067FB0121206800F580504161012084F837
:1019A000440000BF002084F8450000BF4FF48031A0
:1019B000206800F580504161206800F58050406942
:1019C00000F40040B0F5004F10D12046FFF752FF61
:1019D0004FF40041206800F580504161012084F8F7
:1019E000440000BF002084F8450000BF10BD000087
:1019F0002DE9FC4104460025002001909C4E002763
:101A0000804614B90120BDE8FC8194F8440028B94F
:101A1000002084F84500204600F070F900BF002047
:101A200000909448006840F480409249086008465D
:101A3000006800F48040009000BF00BF8E4800683E
:101A400020F400008C49086008460068216A0843B9
:101A500089490860206800F58050006840F0010165
:101A6000206800F58050016000F020FD07460FE07F
:101A700000F01CFDC01BB0F5FA7F09D9032084F8E3
:101A8000440000BF002084F8450000BF0320BAE7EF
:101A9000206800F58050006800F001000028E7D1C0
:101AA0002068056925F01C0500F0CCFE0646734849
:101AB000864205D37248864202D245F008051AE0F4
:101AC0006F48864205D36A48864202D245F00C052B
:101AD00011E06748864203D36A48864200D20AE092
:101AE0006848864205D36848864202D245F004051C
:101AF00001E045F01005206805614FF40042002127
:101B0000204600F0AEFA48B14FF0010841462046A9
:101B1000FFF7CEFA012084F8440074E70520FFF7B0
:101B2000FDFD6068002871D000F0C0FC074600BFD2
:101B300001AA0121204600F069F900F0B7FCC01BA2
:101B400041F2883188420FD94FF0010841462046C2
:101B5000FFF7AEFA012084F8440000BF002084F8AB
:101B6000450000BF03204EE7019800F00400042860
:101B7000DED182020021204600F073FA48B14FF016
:101B8000010841462046FFF793FA012084F84400FB
:101B900039E700F08BFC074600BF01AA012120466F
:101BA00000F034F900F082FCC01B41F28831884219
:101BB0000FD94FF0010841462046FFF779FA01207E
:101BC00084F8440000BF002084F8450000BF0320D3
:101BD00019E7019800F020002028DED101AA1F217A
:101BE000204600F013F948B14FF001084146204665
:101BF000FFF75EFA012084F8440004E7019800F042
:101C0000100020B14FF40061E16002E00DE000211E
:101C1000E160019800F00400042802D10021A160D5
:101C20001DE04FF48041A16019E0E068C0F3CF00EF
:101C3000A168C1F34F0140EA01020021204600F0F3
:101C400010FA48B14FF0010841462046FFF730FA3C
:101C5000012084F84400D6E60520FFF75FFD4146E9
:101C60002046FFF725FA012084F844000020CAE648
:101C7000008793034438024004380140002D3101AD
:101C8000C00E160200E1F50580D1F00810B504463B
:101C900014492068884223D100BF1348006820F00F
:101CA0008060114908600846006820F00060086004
:101CB0000846006820F00070086000BF32210B4821
:101CC00000F018FA86210A4800F014FA4FF4006177
:101CD000084800F00FFA4FF4C041074800F00AFA34
:101CE00010BD000000800240303802400008024071
:101CF00000000240000402400018024010B586B007
:101D000004463C492068884271D13220019002206B
:101D1000029000200390032004900B20059001A95D
:101D2000354800F0A7FA862001900220029000209A
:101D30000390032004900B20059001A92F4800F088
:101D400099FA4FF400600190022002900020039065
:101D5000032004900B20059001A9294800F08AFA7D
:101D60004FF4C04001900220029000200390032015
:101D700004900B20059001A9224800F07BFA002274
:101D800006213D2000F005FC3D2000F0F5FB00BFE2
:101D900000BF002000901C48006840F000701A4905
:101DA00008600846006800F00070009000BF00BFA7
:101DB00000BF002000900846006840F08060086086
:101DC0000846006800F08060009000BF00BF00BFC0
:101DD000002000900846006840F000600860084657
:101DE000006800F00060009000BF00BF00BF06B0B8
:101DF00010BD0000008002400008024000000240C8
:101E00000004024000180240303802402DE9F04141
:101E100004460E4617460025A84694F8440082283A
:101E200002D10220BDE8F081822084F844002068BD
:101E3000056905F01C05208A4FF4784101EAC020AD
:101E40000543481100EA8610054325F0020545F0D8
:101E500001052068056100F029FB804612E000F0D2
:101E600025FBA0EB0800B0F5803F09D3012084F8E2
:101E7000440000BF002084F8450000BF0320D1E7E4
:101E80002068056905F001000028E8D12068406954
:101E900080B23860012084F844000020C2E70000CE
:101EA00038B50446002000906946074800681BF0DA
:101EB0006FFC009838B14FF0805004490860BFF3C0
:101EC0004F8FBFF36F8F38BD0C07002004ED00E08B
:101ED00010B5044600BF94F84500012801D1022046
:101EE00010BD012084F8450000BF022084F84400A2
:101EF0002046FFF713FA2046FFF7FCF92046FFF7CC
:101F000075F82046FFF752F82046FFF744F8012005
:101F100084F8440000BF002084F8450000BF00BFE3
:101F2000DEE770B5024600230025002400BF92F8CA
:101F30004500012801D1022070BD012082F8450032
:101F400000BF022082F8440049B9012082F8440011
:101F500000BF002082F8450000BF0120ECE7D06AF6
:101F6000006800F0004048B1122082F8440000BF31
:101F7000002082F8450000BF0120DDE740F2F45068
:101F8000814208D9B1FBF0F3B1FBF0F600FB16106B
:101F900010B15B1C00E00123012B13D1D06A006853
:101FA00040F04050D66A3060C1F30C00D66A7060D1
:101FB000D06A006840F00040D66A3060D06AC068DD
:101FC000D06232E000242EE0D06A006820F0405059
:101FD000D66A30602CB9D06A006840F08050D66A6A
:101FE000306040F2F450D66A7060581EA04210D1A2
:101FF000D06A006840F00050D66A3060581EC0EBCE
:10200000C01000EB4000A1EB8005C5F30C00D66AC0
:102010007060D06A006840F00040D66A3060D06AD4
:10202000C068D062641C9C42CED3106800F580501A
:10203000406900F0040048B10426106800F58050A3
:1020400046610026106800F580504660012082F845
:10205000440000BF002082F8450000BF00BF6BE7CE
:1020600070472DE9F04104460E4617460025A84664
:1020700094F84400422802D10220BDE8F0814220B9
:1020800084F844002068056905F01C05208A4FF497
:10209000784101EAC0200543481100EA8610054353
:1020A00045F0020545F00105B8B221684861206895
:1020B000056100F0FBF9804612E000F0F7F9A0EBB3
:1020C0000800B0F5803F09D3012084F8440000BF28
:1020D000002084F8450000BF0320CEE72068056992
:1020E00005F001000028E8D1012084F84400002018
:1020F000C3E70000F0B50C460025002200230021B4
:102100009CE0012606FA01F504EA0502AA427DD107
:1021100006684FEA410C032707FA0CF7BE43066036
:10212000CF0800F1200656F827604F074FEAD76C1A
:102130000F2707FA0CF7BE434FEAD10C00F1200736
:1021400047F82C6086684FEA410C032707FA0CF722
:10215000BE438660476801268E40B7434760C66825
:102160004FEA410C032707FA0CF7BE43C660354E11
:102170008F0856F827308E07370F0F26BE403340A2
:10218000314EB04201D100262DE0304EB04201D197
:10219000012628E02E4EB04201D1022623E02D4E2A
:1021A000B04201D103261EE02B4EB04201D10426DD
:1021B00019E02A4EB04201D1052614E0284EB04263
:1021C00001D106260FE0274EB04201D107260AE0D2
:1021D000254EB04201D1082605E0244EB04201D17F
:1021E000092600E00A268F073F0FBE409E4224D1F9
:1021F0008E07370F0F2606FA07F3124E8F0856F890
:1022000027609E430F4F4FEA910C00E015E047F81E
:102210002C60174E36689643154F3E603E1D36685B
:1022200096433F1D3E603E1D366896433F1D3E600F
:102230003E1D366896433F1D3E60491C1029FFF441
:1022400060AFF0BD083801400000024000040240C9
:1022500000080240000C024000100240001402403E
:1022600000180240001C02400020024000240240EE
:10227000003C0140F8B502460B4600250024002032
:102280000021E6E0012606FA01F51E6806EA0504CB
:10229000AC4273D15E68022E02D05E68122E13D15A
:1022A000CF0802F1200656F827004E07F70E0F263A
:1022B000BE40B0434F07FF0E1E69BE403043CF08FB
:1022C00002F1200646F8270010684F000326BE40A2
:1022D000B0431E7906F003064F00BE403043106045
:1022E0005E68012E08D05E68022E05D05E68112E51
:1022F00002D05E68122E13D190684F000326BE40B4
:10230000B0434F00DE68BE40304390605068012605
:102310008E40B0431E79C6F300168E4030435060A5
:10232000D0684F000326BE40B0434F009E68BE40B9
:102330003043D0605E6806F08056B6F1805FA8D169
:1023400000BF00260096454E366846F48046434F4F
:102350003E603E46366806F48046009600BF00BFE9
:102360003F4E8F0856F827008E07370F0F26BE40C6
:10237000B0433C4EB24202D100262EE068E03A4E15
:10238000B24201D1012628E0384EB24201D10226E4
:1023900023E0374EB24201D103261EE0354EB24251
:1023A00001D1042619E0344EB24201D1052614E0D1
:1023B000324EB24201D106260FE0314EB24201D177
:1023C00007260AE02F4EB24201D1082605E02E4E24
:1023D000B24201D1092600E00A268F073F0FBE4016
:1023E00030431F4E8F0846F82700284E3068A04320
:1023F0005E6806F48036B6F5803F00D12043234E58
:102400003060361D3068A0435E6806F40036B6F5CD
:10241000003F00D120431D4E361D3060361D306810
:10242000A0435E6806F48016B6F5801F00D12043F5
:10243000164E08363060361D3068A0435E6806F4DC
:102440000016B6F5001F00D12043104E0C36306048
:10245000491C1029FFF416AFF8BD000044380240B3
:102460000838014000000240000402400008024019
:10247000000C02400010024000140240001802400C
:10248000001C02400020024000240240003C0140A9
:10249000024613690B400BB1012000E00020704799
:1024A0000AB1816101E00B04836170470148006853
:1024B0007047000090040020034800680349097831
:1024C00008440149086070479004002098040020E7
:1024D00010B50D48006840F400700B4908600846CC
:1024E000006840F4806008600846006840F480702E
:1024F0000860032000F08CF80F2000F007F800F0CF
:102500002BF8002010BD0000003C024070B50446CE
:102510000E4800784FF47A71B1FBF0F00C4909686D
:10252000B1FBF0F5284600F040FE08B1012070BD77
:10253000102C07D200222146501E00F02AF8054830
:10254000046001E00120F2E70020F0E79804002099
:102550008C040020940400207047000000BF00F0AD
:102560001F0201219140034A430942F8231000BF92
:102570007047000080E100E000BF00F01F02012171
:1025800091404209920002F1E022C2F8001100BF1E
:1025900070472DE9F05F80460D461646002701F092
:1025A0005DFB074639462A46334601F00700C0F175
:1025B000070ABAF1040F02D94FF0040A01E0C0F192
:1025C000070AD14600F1040ABAF1070F02D24FF010
:1025D000000A01E0A0F1030AD4464FF0010A0AFA0A
:1025E00009FAAAF1010A0AEA020A0AFA0CFA4FF0F9
:1025F000010B0BFA0CFBABF1010B0BEA030B4AEAE4
:102600000B042146404601F031FBBDE8F09F00007D
:1026100000BF00F00702064B19684FF6FF03194090
:10262000044B0B4343EA0221014B196000BF704782
:102630000CED00E00000FA0538B5002400BF0020D2
:1026400000901D48006840F080501B490860084613
:10265000006800F08050009000BF00BF01201749C3
:102660000864FFF723FF044607E0FFF71FFF001B86
:10267000B0F57A7F01D9032038BD1148406800F4D5
:102680008030B0F5803FF0D101200C494864FFF75D
:102690000DFF044607E0FFF709FF001BB0F57A7F46
:1026A00001D90320E8E70648406800F40030B0F59F
:1026B000003FF0D10020DFE74038024000000E422A
:1026C0000070004070B504460D460CB9012070BD85
:1026D0005848006800F00F00A84209D255490D7013
:1026E0000846006800F00F00A84201D00120EEE784
:1026F000207800F0020002281DD1207800F00400AC
:10270000042805D14C48006840F4E0504A4908606C
:10271000207800F00800082805D14748006840F4F8
:102720006040454908604448006820F0F000A16816
:10273000084341490860207800F00100A8B36068B0
:10274000012807D13C4808380068C0F34040B8B9B8
:102750000120BCE76068022802D06068032807D126
:10276000354808380068C0F3406048B90120AEE73A
:10277000314808380068C0F3400008B90120A6E7D6
:102780002D48006820F00300616808432A4908606A
:10279000FFF78CFE064609E0FFF788FE801B41F23A
:1027A0008831884202D9032091E707E02248006877
:1027B00000F00C006168B0EB810FEDD11D4800689E
:1027C00000F00F00A84209D91A490D7008460068A8
:1027D00000F00F00A84201D0012078E7207800F037
:1027E0000400042807D11448006820F4E050E16890
:1027F000084311490860207800F00800082808D133
:102800000D48006820F46040216940EAC1000A498F
:10281000086000F03DF808490968C1F30311074A50
:10282000515CC840064908600F20FFF76FFE00208A
:102830004DE70000003C02400838024082E40108F5
:102840008C04002001480068704700008C040020C0
:1028500000B5FFF7F7FF04490968C1F38221034A75
:10286000515CC84000BD00000838024092E40108F5
:1028700000B5FFF7E7FF04490968C1F34231034A95
:10288000515CC84000BD00000838024092E40108D5
:102890002DE9F047002400250026A14625480068C0
:1028A00000F00C0020B1042805D008283AD105E03A
:1028B000DFF8849039E0DFF8849036E01D48001F8F
:1028C000006800F03F041B48001F006800F480000F
:1028D00078B11A481749091F0968C1F38811A0FB8C
:1028E00001700146224600233846FDF7D9FC054613
:1028F0000EE011480F49091F0968C1F38811A0FBB8
:1029000001700146224600233846FDF7C9FC054602
:102910000848001F0068C0F30140401C4600B5FB9A
:10292000F6F902E0DFF8109000BF00BF4846BDE8AE
:10293000F0870000083802400024F40040787D0150
:10294000F8B504460CB90120F8BD207800F001006C
:10295000002874D0F948006800F00C0004280DD05D
:10296000F648006800F00C00082813D1F348001F57
:10297000006800F48000B0F5800F0BD1EF480838F4
:102980000068C0F34040002859D06068002856D144
:102990000120D9E700BF6068B0F5803F08D1E74863
:1029A0000838006840F48030E449083908601EE0C7
:1029B0006068B0F5A02F0DD1E0480838006840F4F9
:1029C0008020DE49083908600846006840F48030FD
:1029D00008600CE0D9480838006820F48030D749F6
:1029E000083908600846006820F48020086000BFAD
:1029F000606890B1FFF75AFD054606E0FFF756FD07
:102A0000401B642801D903209EE7CC4808380068A1
:102A1000C0F340400028F1D011E0FFF747FD054624
:102A200006E0FFF743FD401B642801D903208BE734
:102A3000C24808380068C0F340400028F1D120782F
:102A400000F0020002285FD1BC48006800F00C00D2
:102A500058B1BA48006800F00C0008281CD1B748EB
:102A6000001F006800F48000B0B9B448083800685E
:102A7000C0F3400020B1E068012801D0012063E7E5
:102A8000AE480838006820F0F800216940EAC1002B
:102A9000AA490839086037E0E06800B30120A84976
:102AA0000860FFF703FD054606E0FFF7FFFC401B4B
:102AB000022801D9032047E7A04808380068C0F37E
:102AC00040000028F1D09D480838006820F0F80048
:102AD000216940EAC10099490839086014E00020E2
:102AE00097490860FFF7E2FC054606E0FFF7DEFCC9
:102AF000401B022801D9032026E7904808380068C7
:102B0000C0F340000028F1D1207800F00800082828
:102B10002CD16069A8B101208A490860FFF7C6FC82
:102B2000054606E0FFF7C2FC401B022801D903203E
:102B30000AE782486C300068C0F340000028F1D0FA
:102B400014E000207F490860FFF7B0FC054606E06E
:102B5000FFF7ACFC401B022801D90320F4E67748BC
:102B60006C300068C0F340000028F1D1207800F0FC
:102B70000400042870D1002670483830006800F046
:102B8000805090B900BF002000906C483830006839
:102B900040F080506949383108600846006800F00C
:102BA0008050009000BF00BF01266748006800F415
:102BB0008070B0B96448006840F480706249086071
:102BC000FFF774FC054606E0FFF770FC401B022887
:102BD00001D90320B8E65C48006800F48070002842
:102BE000F2D000BFA068012808D1544868300068BE
:102BF00040F001005149683108601DE0A0680528D7
:102C00000DD14E486830006840F004004B496831EF
:102C100008600846006840F0010008600CE0474882
:102C20006830006820F001004449683108600846B7
:102C3000006820F00400086000BFA068A8B1FFF79A
:102C400035FC054609E0FFF731FC401B41F28831B5
:102C5000884202D9032077E626E0384868300068C9
:102C6000C0F340000028EED013E0FFF71FFC05463C
:102C700008E0FFF71BFC401B41F28831884201D974
:102C8000032061E62D4868300068C0F3400000284A
:102C9000EFD1012E07D129483830006820F080504C
:102CA00026493831086000BFA069B8B323480068DE
:102CB00000F00C0008285ED0A069022846D1002050
:102CC0001F490866FFF7F2FB054606E0FFF7EEFB3B
:102CD000401B022801D9032036E61848083800684E
:102CE000C0F340600028F1D1D4E907010843616ACC
:102CF00040EA81110122A06AC2EB500041EA004182
:102D00002C20005D41EA00600C49091F0860012089
:102D10000B490866FFF7CAFB054607E02DE0FFF701
:102D2000C5FB401B022801D903200DE603480838E3
:102D30000068C0F340600028F1D01EE0083802406F
:102D400000004742800E47420070004000200C49BE
:102D50000866FFF7ABFB054606E0FFF7A7FB401B45
:102D6000022801D90320EFE506480068C0F340605F
:102D70000028F2D101E00120E6E50020E4E50000B2
:102D8000000047420038024070B505460B46164623
:102D90000024286840680E4900EA0104200CD8701D
:102DA000C4F30420587004F03F009870C4F342301C
:102DB00018705EB9D87802F0C9FAD870587802F065
:102DC000C5FA5870987802F0C1FA9870002070BD6A
:102DD0003FFFFF0070B504460B46164600252068ED
:102DE000806A586020680069C0F30E00986020680F
:102DF00000680F4900EA0105C5F305401870C5F3E6
:102E00000620587005F07F00987005F48000000CD3
:102E1000D8705EB9187802F099FA1870587802F0F4
:102E200095FA5870987802F091FA9870002070BD69
:102E30007F7F7F0010B504460CB9012010BD607F74
:102E400020B900202077204600F060F8022060774B
:102E500000BFCA202168486253202168486200BF31
:102E6000204602F08BFA40B100BFFF202168486283
:102E700000BF042060770120E0E7206880682249D5
:102E800008402168886021696068084361690843D7
:102E9000216889680843216888602168E0680861C2
:102EA00020680169208941EA0040216808612068A2
:102EB000C06820F080002168C8602068806800F049
:102EC000200060B9204600F03FF940B100BFFF206C
:102ED0002168486200BF042060770120AEE72068C7
:102EE000006C20F48020216808642068006CA169CF
:102EF00008432168086400BFFF202168486200BFC2
:102F000001206077002099E7BFFF8FFF7047000026
:102F10002DE9F04104460D461646002700BF207FEC
:102F2000012802D10220BDE8F0810120207700BFF6
:102F3000022060774EB9687800F01000102804D1A4
:102F4000687800F0EF000A30687086B9E87802F01F
:102F500008FA0304687802F004FA43EA0023A87828
:102F600002F0FFF90343287843EA403709E0E878A4
:102F70000004697840EA0120A9780843297840EAEA
:102F8000413700BFCA202168486253202168486247
:102F900000BF204602F0F2F960B100BFFF202168B7
:102FA000486200BF0420607700BF0020207700BF88
:102FB0000120B8E716483840216848602068C0689A
:102FC00020F080002168C8602068806800F0200040
:102FD00080B9204600F0B8F860B100BFFF2021683A
:102FE000486200BF0420607700BF0020207700BF48
:102FF000012098E700BFFF202168486200BF012040
:10300000607700BF0020207700BF00BF8BE7000083
:103010003FFFFF002DE9F04104460D46164600270C
:1030200000BF207F012802D10220BDE8F0810120ED
:10303000207700BF02206077CEB92068806800F05A
:10304000400000B102E00020E87000BF287802F0E4
:1030500088F90304687802F084F943EA0023A87829
:1030600002F07FF90343E87843EA004716E020685E
:10307000806800F0400020B1287802F067F9074628
:1030800002E00020E87000BF28780004697840EA78
:103090000120A9780843E97840EA014700BFCA2027
:1030A0002168486253202168486200BF204602F030
:1030B00065F960B100BFFF202168486200BF0420AD
:1030C000607700BF0020207700BF0120ADE71D48DA
:1030D0003840216808602068806820F480202168DA
:1030E0008860D5E90301084321688968084321689D
:1030F00088602068C06820F080002168C86020686F
:10310000806800F0200080B9204600F01DF860B112
:1031100000BFFF202168486200BF0420607700BF25
:103120000020207700BF01207FE700BFFF2021683B
:10313000486200BF0120607700BF0020207700BFF9
:1031400000BF72E77F7F7F0070B5044600252068CE
:10315000C06820F0A0002168C860FFF7A7F9054605
:1031600007E0FFF7A3F9401BB0F57A7F01D90320F0
:1031700070BD2068C06800F020000028F1D0002059
:10318000F6E7042808D14FF0E021096941F0040175
:103190004FF0E022116107E04FF0E021096921F0D2
:1031A00004014FF0E0221161704770B504462546D6
:1031B000681EB0F1807F01D301200FE0681E4FF040
:1031C000E02148610F214FF0FF3000F04FFD00205B
:1031D0004FF0E021886107200861002070BD704732
:1031E0007047024600BF92F83800012801D1022042
:1031F0007047012082F8380000BF022082F83900B1
:103200001068406820F070001368586010684068CB
:103210000B681843136858601068806820F08000BD
:1032200013689860106880684B681843136898604A
:10323000012082F8390000BF002082F8380000BF6A
:1032400000BFD5E730B52DED028B83B00546374979
:103250002868884266D1287E012863D1002134483D
:1032600000F01BFA0446002C5BD03248006810B90D
:103270003048046055E03048006840B92E4804608A
:1032800000682C490968401A2C49086049E029481F
:103290000068201A2A4908600846006828B3FFF72A
:1032A000E7FA23494968491CB0FBF1F000EE100A27
:1032B000F8EE400A2248006800EE100AB8EE400A14
:1032C00080EE801A1F4880ED001A90ED000A10EE83
:1032D000100AFDF7CEFA41EC180B8DED008B1AA207
:1032E00004212348006803F059FF1448006898B18E
:1032F0001348006880B11148006811490968B0FBA3
:10330000F1F000EE100AB8EE400ADFED1A0A20EEE6
:10331000200A194880ED000A06480460002006498A
:10332000086000BF03B0BDEC028B30BD0008004058
:10333000E4900020A4010020A8010020B00100209A
:10334000AC010020B401002048414C5F54494D5F5E
:1033500049435F4361707475726543616C6C62616F
:10336000636B3A667265712069732025660A0000F6
:10337000A00100200000C842B80100202DE9F04162
:1033800004460D46164600BF94F83800012802D1C5
:103390000220BDE8F081012084F8380000BF02203F
:1033A00084F8390096B9EB68D5E90012206802F07C
:1033B000D7F92068806920F00C00216888612068B6
:1033C0008069A9680843216888613DE0042E13D113
:1033D000EB68D5E90012206802F00EFA20688069D7
:1033E00020F440602168886120688069A96840EA0B
:1033F00001202168886127E0082E12D1EB68D5E909
:103400000012206802F017FA2068C06920F00C0052
:103410002168C8612068C069A96808432168C8613B
:1034200012E0EB68D5E90012206802F022FA206869
:10343000C06920F440602168C8612068C069A9683B
:1034400040EA01202168C861012084F8390000BFEA
:10345000002084F8380000BF00BF9AE710B504468A
:103460000CB9012010BD94F8390028B9002084F867
:103470003800204600F00CF8022084F83900211DA5
:10348000206802F0ABF8012084F839000020E9E759
:10349000704730B504460D4635B1042D0BD0082DCC
:1034A00010D00C2D1CD114E02068C06840F0020040
:1034B0002168C86015E02068C06840F004002168F9
:1034C000C8600EE02068C06840F008002168C8604D
:1034D00007E02068C06840F010002168C86000E084
:1034E00000BF00BF01222946206802F0E9F82068E9
:1034F000006840F0010021680860002030BD10B570
:10350000044620680069C0F34000D8B12068C06854
:10351000C0F34000B0B16FF00200216808610120E3
:1035200020762068806900F0030018B12046FFF77C
:1035300089FE05E0204600F0ADF8204600F0ABF82B
:103540000020207620680069C0F38000D8B1206890
:10355000C068C0F38000B0B16FF00400216808615A
:10356000022020762068806900F4407018B120465F
:10357000FFF768FE05E0204600F08CF8204600F0DA
:103580008AF80020207620680069C0F3C000D8B116
:103590002068C068C0F3C000B0B16FF008002168B7
:1035A0000861042020762068C06900F0030018B18B
:1035B0002046FFF747FE05E0204600F06BF8204666
:1035C00000F069F80020207620680069C0F3001040
:1035D000D8B12068C068C0F30010B0B16FF010001F
:1035E00021680861082020762068C06900F44070D6
:1035F00018B12046FFF726FE05E0204600F04AF805
:10360000204600F048F8002020762068006900F08D
:10361000010058B12068C06800F0010030B16FF0BF
:10362000010021680861204600F036F82068006932
:10363000C0F3C01058B12068C068C0F3C01030B1EA
:103640006FF08000216808612046FFF7C8FD206800
:103650000069C0F3801058B12068C068C0F38010C2
:1036600030B16FF0400021680861204600F03FF85B
:1036700020680069C0F3401058B12068C068C0F3EA
:10368000401030B16FF02000216808612046FFF73C
:10369000A7FD10BD7047704770470246002300BF6A
:1036A00092F83800012801D102207047012082F8E9
:1036B000380000BF31B1042907D0082908D00C29EF
:1036C0000CD108E01068436B09E01068836B06E0DA
:1036D0001068C36B03E01068036C00E000BF00BF1C
:1036E00000BF002082F8380000BF1846DDE77047B1
:1036F000704700002DE9F0470446206805682068FF
:10370000C668206847694FF00008C14605F00F08F9
:10371000B8F1000F0AD105F0200038B106F0200002
:1037200020B1204602F0BAF9BDE8F087B8F1000FE9
:103730006DD007F0010018B906F49070002866D02B
:1037400005F0010030B106F4807018B1E06B40F074
:103750000100E06305F0040030B107F0010018B18A
:10376000E06B40F00200E06305F0020030B107F0CA
:10377000010018B1E06B40F00400E06305F00800C0
:1037800030B107F0010018B1E06B40F00800E063D1
:10379000E06B68B305F0200028B106F0200010B1FE
:1037A000204602F07BF920684069C0F38019E06B85
:1037B00000F0080010B9B9F1000F22D0204602F045
:1037C00043F92068406900F04000B0B120684069CA
:1037D00020F0400021684861606B50B11748616B70
:1037E0000865606BFDF716FE10B1606B016D8847D0
:1037F0000CE02046FFF77CFF08E02046FFF778FF4B
:1038000004E02046FFF774FF0020E0638CE705F03A
:10381000800030B106F0800018B1204602F040FB75
:1038200082E705F0400030B106F0400018B12046B4
:1038300002F01AF978E700BF76E700004D5900085A
:1038400010B504460CB9012010BDA06900B100E01C
:1038500000BF94F8390028B9002084F838002046C9
:1038600000F028F8242084F839002068C06820F48B
:1038700000502168C860204602F05EF920680069A7
:1038800020F49040216808612068406920F02A00F7
:10389000216848612068C06840F400502168C86011
:1038A0000020E063202084F8390084F83A000020EA
:1038B000CAE7000010B586B00446142101A8FCF741
:1038C000B8FD2A49206888424ED100BF00200090F0
:1038D0002748006840F480102549086008460068C1
:1038E00000F48010009000BF00BF00BF00200090D7
:1038F0001F481038006840F008001D491039086062
:103900000846006800F00800009000BF00BF00BF3C
:10391000002000900846006840F004000860084657
:10392000006800F00400009000BF00BF8814019000
:1039300002200290012003900320049008200590AB
:1039400001A90C48FEF796FC042001900820059080
:1039500001A90948FEF78EFC002205213520FEF75B
:1039600018FE3520FEF708FE06B010BD00500040DE
:103970004038024000080240000C024077B581B098
:103980000446154694F83A00202850D1029800B118
:1039900015B9012004B070BD00BF94F838000128AB
:1039A00001D10220F6E7012084F8380000BF029818
:1039B000A062A5850020E063222084F83A001D481B
:1039C000616BC8631C48616B08641C48616BC86408
:1039D0000020616B086502AE32682368191D2B4612
:1039E000606BFDF74BFE00BF002000902068006870
:1039F000009020684068009000BF00BF00BF00201A
:103A000084F8380000BF2068C06840F480702168E6
:103A1000C8602068406940F0010021684861206862
:103A2000406940F04000216848610020B2E7022070
:103A3000B0E70000B1590008F759000861590008C3
:103A400010B5034693F83A00202829D101B10AB9EC
:103A5000012010BD00BF93F83800012801D10220D9
:103A6000F7E7012083F8380000BF99629A85DA856C
:103A70000020D863222083F83A0000BF002083F89A
:103A8000380000BF1868406940F001001C686061A0
:103A90001868C06840F490701C68E0600020D8E7A7
:103AA0000220D6E770B5054618492868884202D139
:103AB00007F0A6FC29E0002425E0C4EBC40014496B
:103AC00001EBC0004068296888421BD1C4EBC402E6
:103AD0000F4B03EBC202516BC4EBC40203EBC202F7
:103AE000506A012208F074FBC4EBC402084B03EBDC
:103AF000C202516BC4EBC40203EBC202906A012202
:103B0000FFF73CFF641C072CD7D370BD005000406A
:103B1000E801002070470000F7B50446154694F808
:103B2000390020283DD1019800B10DB90120FEBD1A
:103B300000BF94F83800012801D10220F7E70120E6
:103B400084F8380000BF01982062A584E584002035
:103B5000E063212084F839001348216BC8631348BF
:103B6000216B08641248216BC8640020216B086532
:103B700001AE23681A1D31682B46206BFDF77EFDD0
:103B80006FF040002168086000BF002084F8380012
:103B900000BF2068406940F0800021684861002033
:103BA000C5E70220C3E70000055A00083B5A000899
:103BB0006159000810B5034693F83900202823D135
:103BC00001B10AB9012010BD00BF93F838000128E7
:103BD00001D10220F7E7012083F8380000BF196205
:103BE0009A84DA840020D863212083F8390000BF4A
:103BF000002083F8380000BF1868C06840F08000DB
:103C00001C68E0600020DEE70220DCE770B50546B6
:103C10000E492868884202D107F034FC15E00024E0
:103C200011E0C4EBC4000A4901EBC00040682968F8
:103C3000884207D1C4EBC401054A02EBC101486ABE
:103C400008F02CFB641C072CEBD370BD0050004027
:103C5000E8010020704700BFFEE770470248006897
:103C6000C0F30220704700000CED00E010B5002802
:103C700007DA0A07140E054A00F00F031B1FD4547D
:103C800003E00A07130E024A135410BD18ED00E0BA
:103C900000E400E02DE9F04104460D463A48A060FA
:103CA00000272888392835D004DC012807D0372898
:103CB00065D10FE03A283CD03C2860D143E0002099
:103CC00084F8F8004FF4FA71D4F8880007F088FF00
:103CD000032754E094F8F800032809DA204610F08E
:103CE000EBF894F8F800401C84F8F800032710E083
:103CF00039224FF6FF71042000F0A2FE0646234849
:103D0000006800684FF6FF723146C3681F480068BC
:103D1000984734E004F1E40001F0D4FAD4F88400C8
:103D200011F0D2FF0020C4F884001748A0600827D3
:103D300025E02E46B08882B206F1080120460FF039
:103D400091F803271BE02E463079032802D0307902
:103D5000042805D13279711D204610F039F807E0AA
:103D60003079052804D196F9051020460FF0EAFFB6
:103D7000402104F18C00FCF75CFB032700BF00BF6F
:103D80003846BDE8F0810000253F000810E2010838
:103D9000F8B504460D462548A0600026288801286D
:103DA00004D0382830D039283DD131E013F050FB11
:103DB000C4F8840000BFD4F8840030B97E231C48C6
:103DC000002102681BA003F03BF900BF69461FA059
:103DD0000AF0AAFC21A204211548006803F0DEF9CC
:103DE00054F8840F274B41F66842694612F0AAF84E
:103DF0002549206812F09EFB6068843C4FF4FA610C
:103E000007F0EEFE03260EE02048A06008260AE038
:103E1000D4F8840011F058FF0020C4F8840003484F
:103E2000A060082600BF00BF3046F8BD253F00084F
:103E3000080000206D652D3E7463705F636F6E6EC9
:103E400020213D204E554C4C000000003139322ECF
:103E50003136382E312E3133310000004E65744337
:103E60006C69656E745F636F6E6E656374696E67AF
:103E70003A206E6F77207463705F636F6E6E656358
:103E800074210A00950001088D010108953C000885
:103E900010B5074C0749204600F0D0FB002337221D
:103EA0000548016804F1E40001F0F0F910BD0000DC
:103EB000C01A0020BD3E000810E2010870B504469B
:103EC0000D460020C4F8840084F8F800402104F175
:103ED0008C00FCF7AEFA0AA007F0E8FAC4F88800F4
:103EE00000BFD4F8880030B95B230748002102687E
:103EF00006A003F0A5F800BF0948A060082070BD27
:103F00006C65645F72756E00080000206D652D3E63
:103F100072756E5F6C656420213D204E554C4C00DF
:103F2000253F00080246064B936000200B88032BB8
:103F300003D1044B9360082000BF00BF704700000E
:103F4000C94E0008913D000810B501F083FA04F055
:103F5000B3FB0248006818F0EBFD10BD0400002020
:103F60002DE9F0472DED088B04460F466148A0600F
:103F70004FF000083888012804D0352808D03728A9
:103F800005D110E0002084F8B8004FF00308AAE043
:103F900059A204216448006803F000F904F5927006
:103FA00001F090F900BF61A204215F48006803F0AE
:103FB000F5F8D4F8200107F093FF10EE109A484668
:103FC000FCF757FC41EC190B9FED610B53EC102BE8
:103FD000FCF797FA41EC180BFCF72CFC05462B4636
:103FE0005DA204215048006803F0D8F841F28830FF
:103FF000854203DB43F69820854201DD42F21075CD
:1040000000BF42F21070854222DB281AFCF701FC47
:1040100041EC1B0B9FED590B53EC102BFCF78AFB6B
:1040200041EC1A0B9FED570B53EC102BFCF710FBD8
:1040300041EC190B9FED460B53EC102BFCF761FA8A
:1040400041EC180BFCF7F6FB40B284F8B80026E010
:1040500041F28830854222DB4100481BFCF7D9FB46
:1040600041EC1B0B9FED450B53EC102BFCF762FB57
:1040700041EC1A0B9FED450B53EC102BFCF7E8FAC3
:1040800041EC190B9FED320B53EC102BFCF7DAFAD5
:1040900041EC180BFCF7CEFB40B284F8B80000BF2F
:1040A00094F9B8303BA204211F48006803F076F869
:1040B0003C224FF6FF71382000F0C2FC0646052076
:1040C000307194F8B80070713B48006800684FF692
:1040D000FF723146C3683848006898473748A06087
:1040E0004FF0080800BF00BF4046BDEC088BBDE89C
:1040F000F0870000C94E00084F70657261746572E8
:104100005F617373656D626C793A205265636569AE
:10411000766520454E445F4F5045524154494F4EBD
:104120005F534947202100000C0000204F7065724A
:10413000617465725F616C69676E6D656E743A205B
:1041400054494D454F55545F534947210A000000DB
:10415000000000000000E03F4F70657261746572FE
:104160005F616C69676E6D656E743A206672657129
:10417000206973202564210A00000000000000006F
:104180000088B3400000000000005940000000001B
:10419000000059C04F706572617465725F616C692F
:1041A000676E6D656E743A20746F72717565206903
:1041B00073202564210A000010E20108354400083C
:1041C0002DE9F04104460E4617467648A0604FF0B0
:1041D0000008308838282FD2DFE800F0E01CE0E04B
:1041E000E05B5C5D5E5F6061626364656667686931
:1041F0006A6B6C6D6E6F707172A7A8A9AAABACAD3B
:10420000AEAFB0B1B2B3B4B5B6B7B8B9BABBBCBD56
:10421000BE2FE034002084F88400192104F18500C9
:10422000FCF707F9192104F19E00FCF702F90020C0
:1042300084F8B7004FF00308B0E004F5927001F085
:1042400041F800BF3C224FF6FF71382000F0F8FB28
:1042500005462F7194F884006871192204F18501D4
:10426000A81DFCF7BFF8192204F19E0105F11F00FB
:10427000FCF7B8F84C48006800684FF6FF72294612
:10428000C3684948006898474848A0604FF008084C
:1042900084E000BF00BF00BF00BF00BF00BF00BF81
:1042A00000BF00BF00BF00BF00BF00BF00BF00BF16
:1042B00000BF00BF00BF00BF00BF00BF00BF00BF06
:1042C0003078001FC5B22B4639A20421424800684D
:1042D00002F064FF04F18500405D20B994F8840089
:1042E000401C84F8840014F8B70F401C207014F8A8
:1042F000B71904F185004155681E384901EB0010DB
:10430000007820B9002104F19E0041550AE0681EA2
:10431000324901EB00100078012803D1022104F199
:104320009E0041554FF0030838E000BF00BF00BFBA
:1043300000BF00BF00BF00BF00BF00BF00BF00BF85
:1043400000BF00BF00BF00BF00BF00BF00BF00BF75
:1043500000BF00BF00BF00BF30781C38C5B22B467D
:104360001FA204211C48006802F018FF04F1850018
:10437000405D20B994F88400401C84F8840014F84F
:10438000B70F401C207014F8B71904F1850041558F
:104390000121193041554FF0030800BF00BF4046CE
:1043A000BDE8F081C94E000810E20108354400085C
:1043B0004F706572617465725F627574746F6E3A86
:1043C000207072657373656420626E742069732057
:1043D0002564210A000000000C0000201C000020C1
:1043E0004F706572617465725F627574746F6E3A56
:1043F0002072656C6561736520626E74206973203C
:104400002564210A0000000010B5074C074920462A
:1044100000F014F9002337220548016804F5927072
:1044200000F034FF10BD0000BC1B0020194500083F
:1044300020E201082DE9FE4304460D463248A06003
:10444000002728883B283BD03D2804D03E2833D085
:104450003F2855D132E0A846D8F80400029002A8BF
:10446000FCF7AEFA0646002000900190B08A00F2F8
:104470006C70009960F30C010091307C401C009935
:1044800060F317410091317B009861F31F60009049
:10449000307A8DF8040031798DF805103078BDF848
:1044A000061060F30501ADF806106946D4F8BC00AB
:1044B00007F02EFE032723E0032721E003271FE058
:1044C0002E464FF47A72B06800FB02F1002204F528
:1044D000927000F0A1FE3079032803D10B48A06050
:1044E00008270CE03079052803D10948A060082787
:1044F00005E03079042802D10648A060082700BFF3
:1045000000BF3846BDE8FE83C94E000819460008C2
:10451000613F00082B4600082DE9F04106460F4692
:10452000002534A006F0C2FF054600BF35B951236F
:1045300031480021026831A002F082FD00BFC6F8B8
:10454000BC5000243EE0611D304600F0C1F904F18A
:104550001D01304600F0BCF93521304600F0B8F9B5
:10456000294901EB0411486806F0A0FF054600BF89
:1045700035B95D2320480021026820A002F060FDCB
:1045800000BF06F1C00040F824501F4800EB0410A3
:10459000007828B9621D0021284606F0AFFE10E021
:1045A000194800EB0410007801280AD1621D00218F
:1045B000284606F0A3FE04F11D020121284606F05C
:1045C0009DFE641C182CBEDB10A006F06FFF054694
:1045D00000BF35B96C2308480021026807A002F02B
:1045E0002FFD00BFC6F820510A48B0600820BDE882
:1045F000F0810000727463000C0000206465762076
:10460000213D204E554C4C001C00002050574D5F62
:10461000494E00003544000870B504460D4603229B
:1046200029462046FFF7CCFD70BD70B504460D4607
:10463000042229462046FFF7C3FD70BD70B504462D
:104640000D468421204600F0BFF92946204600F09F
:1046500051FB0148206070BD44E7010870B5044675
:1046600018F0ECF808E018F013F94FF0FF310120D2
:1046700018F02CF818F0E2F8E0680028F3D0E668AB
:10468000E07D401CC5B2E575207DA8420CDBA07D15
:10469000216951F82000E060A07D08B9217DA17555
:1046A000A07D401EA0750EE00020E06000BF207DD0
:1046B000401CA84206D018F0EBF84FF49B71044858
:1046C00000F018FE00BF18F0E3F8304670BD00009F
:1046D00010E701082DE9F04104460D4618F0AEF848
:1046E000E67D00BF2EB918F0D3F8D221184800F0AB
:1046F00001FE00BFA87810B1E878401CE870701E79
:10470000C6B2E675207EB04200DD2676E768E56039
:1047100067B900BF18F0BCF800230222194604F163
:104720001C0019F017FA18F089F80CE0A07D401C65
:10473000A075A17D207D814201D10021A175A07DC0
:10474000216941F8207018F0A3F8BDE8F08100005D
:1047500010E701082DE9F04104460D46904605B1E9
:1047600003E06421274800F0C5FD18F067F8E67DF6
:104770004FF6FF7080450BD10EB101270FE00027E7
:1047800000BF18F085F86E211E4800F0B3FD06E06A
:1047900008F0FF00B04201DA012700E00027A87806
:1047A00010B1E878401CE87027B3701EC6B2E675F9
:1047B000207EB04200DD2676E06868B9E56000BF83
:1047C00018F066F800230222194604F11C0019F0C3
:1047D000C1F918F033F80AE0607D216941F82050F2
:1047E000607D08B9217D6175607D401E607518F09F
:1047F0004FF804E018F04CF8284600F0F1F838467D
:10480000BDE8F08110E701082DE9FF5F04460D4681
:1048100016461F46DDE90FABDDF83890E06908B1B8
:10482000E06900E026A003902648006800280CD923
:1048300024480068202808D83EB137B1B9F1000FEC
:1048400003D0BAF1000F00D003E0C8211E4800F0E9
:1048500051FD3A46314604F10C0000F06DF819485C
:1048600001780068401C174A106084F880102046C8
:1048700000F082F800BF206800B103E07221124806
:1048800000F038FD2068594602682046904700BF76
:1048900004F11C004FEA9A022346CDE90059029028
:1048A0000A48039919F00EF98046B8F1000F00D0BC
:1048B00003E0D221044800F01DFDBDE8FF9F000089
:1048C000414F0000E005002060E701087D5A010823
:1048D00070B506460C4696F88050042C0DDB124845
:1048E0000068844209DA002D07D9202D05D80F4829
:1048F00050F82500B04200D104E04FF496710C4806
:1049000000F0F8FC17F09AFF0A48006850F82400FD
:10491000691E01228A4010430649096841F82400B3
:1049200017F0B6FF70BD0000DC05002038520120F2
:104930003EE70108D80500200023036041600272B1
:104940000AB143728372531CC372C37A03737047F4
:1049500002460023110C09B110330A46110A09B1AD
:1049600008330A46110909B11B1D0A460148805C3B
:1049700018447047FFE6010870B5054695F8804079
:10498000002C00D903E064210D4800F0B3FC202C7A
:1049900000D803E065210A4800F0ACFC094850F853
:1049A000240000B903E06621054800F0A3FC17F0DD
:1049B00045FF044840F8245017F06AFF70BD00001E
:1049C000F8E601083852012010B503460A4603E014
:1049D00000241C705B1C521E002AF9D110BD00007F
:1049E00070B50446A07810B317F028FFE0780128CE
:1049F00005D9E078401EE07017F04AFF17E0A07874
:104A0000451E17F045FF0A480068854200D204E0C1
:104A10004FF4CD71074800F06DFC05EB8501064AA7
:104A200002EB81000022214600F090FB00BF70BD28
:104A3000D405002030E70108BC5201207047000077
:104A40002DE9F04107460E469046002509E005EBAA
:104A500085001E4901EB80008089B84200D304E044
:104A60006D1C1B4800688542F1D300BF18480068E0
:104A7000854200D204E04FF49B71164800F03AFCE6
:104A80004FF6FF72964201D0324600E000221146F6
:104A900005EB85020D4B03EB8200002200F0C6FA05
:104AA000044634B1A4F80080681CA0700020E070B7
:104AB00009E04FF6FF70864200D004E04FF4A07189
:104AC000044800F017FC2046BDE8F081BC520120EC
:104AD000D405002030E701087047000070B5054696
:104AE0000E46144616480068032800D203E0C82189
:104AF000144800F0FFFB1248006850B110480068ED
:104B0000401E00EB8000104901EB80008089A0422C
:104B100000D203E0C9210B4800F0ECFB084909680A
:104B200001EB8101084A02EB810023463246294607
:104B300000F0C4FA02480068401C0149086070BDDA
:104B4000D405002030E70108BC52012070B50546AD
:104B50000C460448056004480460A1002846FFF79D
:104B600033FF70BDD8050020DC05002038B50446B1
:104B700020882649098889B2884200DA03E0C821E2
:104B8000234800F0B7FB17F059FEA07810B1E07889
:104B9000401CE07020881F49096851F820000090EF
:104BA00017F076FE009868B30098FFF7D1FE05462F
:104BB00018F01EF900BF184850F8250000B103E0B6
:104BC000D221134800F096FB134951F8250051F803
:104BD000251009684FF6FF72CB6821469847009868
:104BE000691E01228A4090430090009820B10098ED
:104BF000FFF7AEFE054600E00025002DDBD119F0E1
:104C00008FF900BF2046FFF7EBFE38BDDC05002022
:104C10003EE70108D80500203852012010B5FFF703
:104C20005BFF002010BD00002DE9F041064606EBB9
:104C300086002E4901EB800517F000FE00BF6C686E
:104C400004BB06EB8600294901EB80008068C0B1F7
:104C500000BF2DB917F01CFE6E21254800F04AFB5D
:104C600000BF06EB8600214901EB80008068686088
:104C7000002006EB86011D4A02EB810188606C680A
:104C800000E02DE0E06840B960686860E07800F01E
:104C90007F00E07017F0FCFD1FE0E068401EE06060
:104CA000E068B0B9A768206918B12069E0602546BE
:104CB00005E060686860E07800F07F00E07017F061
:104CC000E7FD38684FF6FF722146C36838469847BB
:104CD00003E0254617F0DCFD00BF17F0AFFDAEE79F
:104CE00000BF17F0D5FDBDE8F0810000F8520120AB
:104CF00058E70108024A0260024A42608160704738
:104D0000F0E60108C94E00082DE9F04387B00446DB
:104D1000894665681DB1A068A84200D104E04FF43F
:104D2000C8713A4800F0E6FA00BFA7684946204635
:104D3000B8478046B8F1020F03D135492046B8473D
:104D40008046B8F1000FF0D0B8F1080F58D3A06832
:104D500001900295039709E02D4908312046A847A4
:104D6000032802D12A492046A847A568BD42F3D1AD
:104D700001A9204600F0ACF8064609E000BF01A8F2
:104D800050F826202249091D2046904700BF761E74
:104D9000002EF3DA019DA5602BE00026A0680190AB
:104DA0001B492046A268904708E0761C01A9A0682C
:104DB00041F8260016492046A2689047A068A842FC
:104DC000F3D10198A060062E00DA04E04FF4CD7113
:104DD0000E4800F08FFA00BF00BF01A850F826204F
:104DE0000B49091D2046904700BF761E002EF3DABE
:104DF000019D07490C312046A8470828CDD000BFA7
:104E00006560A56007B0BDE8F0830000D0E601084A
:104E1000E0E601082DE9F04186B004468846666860
:104E2000206828B1A06818B12448864200D103E068
:104E3000C821234800F05EFA41462046A268904708
:104E40000746082F00D103E0D2211D4800F052FA96
:104E500000BF0025A06800901A492046A26890472C
:104E60000EE06D1C062D00DA03E0DC21144800F092
:104E700041FAA0684DF8250012492046A2689047E3
:104E8000A068B042EDD10098A06000BF00BF5DF8FF
:104E900025200C49091D2046904700BF6D1E002D9E
:104EA000F4DA009E07490C312046B0470746082F28
:104EB000CFD06660A66006B0BDE8F081C94E00089C
:104EC000D0E60108E0E60108024604207047000031
:104ED0002DE9F04705460E464FF0FF383768D6F803
:104EE0000890B94507D100BF4E492846C84700BFC2
:104EF0004FF0000892E04B4908392846B847AF68A0
:104F0000B94502D14FF0000888E0464908392846E3
:104F1000C847A868B84207D100BF42492846C847D9
:104F200000BF4FF0000879E0A8683168884204D1DA
:104F300000BF3C492846C84770E000244FF00108F4
:104F40007760AF68374908392846726890478246CB
:104F50001CE008F10108A86846F82800A868484540
:104F60000ED10124B8F1060F00DA04E04FF4FF710E
:104F70002D4800F0BFF9A8F101084FF0030A05E041
:104F8000284908392846AA6890478246BAF1000F96
:104F9000DFD0002C42D1B8F1060F00DA04E04FF464
:104FA0000271214800F0A6F900BF1E492846C847F3
:104FB00000BF44464FF0040A00BF56F82400B84230
:104FC00006D14FF0030AA4F101084FF0FF3400E0CE
:104FD000641E002CF1DABAF1030F1FD04FF0040A5F
:104FE00000BF10492846B847032803D10D490839A6
:104FF0002846B847AF68444600BF56F82400B84278
:1050000006D1A4F101084FF0FF344FF0030A00E08D
:10501000641E002CF1DABAF1030FE2D14046BDE87C
:10502000F0870000E8E60108D0E601082DE9F0412C
:1050300004460F46904617F001FC208AB9B2884218
:1050400034DD256800BF35B917F022FC4FF49B71A1
:10505000194800F04FF900BF2E68208A401E2082B8
:10506000208A60B900BF36B117F012FC4FF4A0716E
:10507000114800F03FF900BF0020608214E000BF3B
:105080006068B04202D8A068B04206D217F000FCB7
:105090004FF4A571084800F02DF900BF608A218AFD
:1050A000884201DD208A6082266000E0002517F03A
:1050B000EFFB2846BDE8F08137E701082DE9F0470E
:1050C0000446884616461D46B8F1000F05D0042E4A
:1050D00003D3281DA84200D903E064211A4800F038
:1050E00009F9C4F800800420A0814FF0010904E010
:1050F000A089001DA08109F10109A089A9B28842F7
:10510000F6DBA589AE4200D303E06E210E4800F025
:10511000F1F8761B0120E081276807E007EB8900A2
:1051200038603F68761BE089401CE081AE42F5D2D2
:1051300000203860E0892082E0896082C4F8048021
:10514000A760BDE8F087000037E7010870B50446A6
:105150000D461646208AE189884206DA6068A84230
:1051600003D8A068A84200D303E0C821064800F095
:10517000C1F817F063FB206828602560208A401C76
:10518000208217F085FB70BD37E7010870B5044633
:105190000E4617F053FBA57D0021A17517F078FB93
:1051A00004E0607DFFF740FD681EC5B2002DF8D118
:1051B00070BD00238375704770B504460D464FF4EB
:1051C0006171024800F096F870BD000010E7010818
:1051D00070B504460D46164617F030FBE06888B9F6
:1051E0000C48E060E07D401EE07500BF17F050FB0A
:1051F00000230222194604F11C0018F0ABFC17F042
:105200001DFB00BFA07D401CA07517F041FB0120D5
:1052100070BD00002CE701082DE9F04104460D4661
:105220001746E07800F00F06D4F80C80A06840B173
:10523000B8F1000F05D125B11EB92088042800DB84
:1052400004E04FF4C8710F4800F054F817F0F6FA74
:10525000E5602761E07800F0800078B9E07840F000
:105260008000E07006EB8600074901EB8000806853
:10527000606006EB860001EB8000846017F008FB9D
:10528000BDE8F08158E70108F85201202DE9F0410E
:1052900004460F4615461E46042D01DB06B904E000
:1052A0004FF49671064800F025F800206060E06039
:1052B00020612580A760A070E670BDE8F081000045
:1052C00058E7010870B5044617F0B8FAE06838B13D
:1052D0000125E07840F04000E0700020E06004E04C
:1052E0000025E07800F0BF00E07017F0D1FA284602
:1052F00070BD000070B504460D462A46214606A042
:1053000000F018FE00BF35230D48002102680DA0F3
:1053100001F096FE00BF70BD515F6F6E4173736503
:105320007274206D6F64756C653A2025732C206C47
:105330006F636174696F6E3A2025752E0A00000054
:10534000C805002066616C7365000000014600BF5F
:10535000080900EB8000420001F00F001044C0B2C9
:1053600070470146002203E0521CA1F10A00C1B2BD
:105370000A29F9D2100741EA1060704770B5044657
:1053800000252068C06800F04000A0B9681E2168B0
:10539000C860FDF78BF8054607E0FDF787F8401B6E
:1053A000B0F57A7F01D9032070BD2068C06800F095
:1053B00040000028F1D00020F6E710B500BF5021D2
:1053C000EFF3118081F31188BFF34F8FBFF36F8F1D
:1053D00000BF0446FDF770F818F042FC012801D028
:1053E00017F010FE00BF84F3118800BF10BD00004D
:1053F0001448006840F470001249086012480068C0
:1054000040F001001049086000200F490831086091
:105410000D4800680D4908400B4908600C48091DFB
:105420000860081F006820F48020091F0860002021
:1054300005490C3108604FF000600249803908606E
:105440007047000088ED00E000380240FFFFF6FEE4
:1054500010300024FEB50021084615F079FA00202E
:1054600039490860394908603949086039483A497A
:105470000022374BCDE900210290344A32493748A7
:105480000AF06AFB35480AF041FD344890F83100D3
:10549000C0F3800018B131480AF0D0FD02E02F4877
:1054A0000AF03AFD002600242C4890F83100C0F3A1
:1054B0008000F8B1294805F04BF905469DB907E091
:1054C0004FF47A7017F006FB641C052C00DD05E034
:1054D000224840681C4909688842F1D000BF052C69
:1054E0000EDC01260CE01EA204212448006801F015
:1054F00055FE05E022A204212048006801F04EFE7E
:10550000012E0AD02948154948606FF07F40886015
:105510002748C86008460AF091FD10484068000E10
:105520000E494968C1F307410C4A9288C2F3072229
:10553000CDE900210290094803791EA204210F48F9
:10554000006801F02BFEFEBDF0060020F4060020EE
:10555000F806002075AA010869D10008E8DE0220DB
:105560006C776970206468637020696E6974206666
:1055700061696C2E2E2E0A0A00000000E006002051
:105580005761697420666F72207468652063616278
:105590006C6520746F20626520706C756767656448
:1055A00020696E2E2E2E0D0A00000000C0A8011FDB
:1055B000C0A8010169702069733A2025642E256412
:1055C0002E25642E25640A0A0000000010B502484A
:1055D000FDF795FF10BD0000E49000200022026856
:1055E0002C4B98420ED0B0F1804F0BD02A4B9842F2
:1055F00008D02A4B984205D0294B984202D0294B1B
:10560000984201D1012300E000231BB122F0700277
:105610004B681A431F4B984220D0B0F1804F1DD0E9
:105620001D4B98421AD01D4B984217D01C4B9842E4
:1056300014D01C4B984211D01B4B98420ED01B4BE0
:1056400098420BD01A4B984208D01A4B984205D07A
:10565000194B984202D0194B984201D1012300E026
:1056600000231BB122F44072CB681A4302608B689E
:10567000C3620B688362074B984202D0094B984281
:1056800001D1012300E000230BB10B690363012367
:1056900043617047000001400004004000080040E2
:1056A000000C004000040140004001400044014063
:1056B0000048014000180040001C0040002000404D
:1056C00030B50023012404FA01F3046A9C43046208
:1056D000046A02FA01F52C43046230BD00B587B0BC
:1056E00000BF002000901B48006840F004001949EA
:1056F00008600846006800F00400009000BF00BF8A
:105700001548164908604FF6FF711448C160B32070
:10571000124948600021114801618160FDF79EFE39
:105720000A2003900120049000200590069000229A
:1057300003A90A48FDF722FE00200190029001A96A
:105740000648FDF74EFD00210448FDF7A2FE07B014
:1057500000BD00004038024000080040E4900020F6
:1057600070B50C46154600210022066A26F0010697
:1057700006628169026A194EB04214D0B0F1804FBE
:1057800011D0174EB0420ED0164EB0420BD0164E6E
:10579000B04208D0154EB04205D0154EB04202D0EE
:1057A000144EB04201D1012600E000261EB121F0C6
:1057B0000301294303E021F0030141F0010121F03D
:1057C000F001F02606EA0316314322F00A0204F043
:1057D0000A0632438161026270BD00000000014090
:1057E0000004004000080040000C0040000401409C
:1057F000004001400018004070B50C4615460021DD
:105800000022066A26F0100606628169026A21F407
:10581000407141EA052121F470414FF4704606EAD7
:105820000336314322F0A002A02606EA04163243D2
:105830008161026270BD70B50C46154600210022E0
:10584000066A26F480760662C169026A21F00301C5
:10585000294321F0F001F02606EA0316314322F431
:1058600020624FF4206606EA04263243C1610262D8
:1058700070BD70B50C46154600210022066A26F45C
:1058800080560662C169026A21F4407141EA05212D
:1058900021F470414FF4704606EA0336314322F496
:1058A00020424FF4204606EA04363243C1610262C8
:1058B00070BD10B500F006F800F02AF8FFF70EFFF3
:1058C00010BD000000B587B000BF002001900E4859
:1058D000006840F002000C4908600846006800F0CB
:1058E0000200019000BF00BF402002900220039000
:1058F0000020049002200590069002A90348FCF7BE
:10590000B9FC07B000BD000030380240000402407E
:1059100010B5002206211E20FCF73BFE1E20FCF7DE
:105920002BFE10BD70B5054628460EF07BF90446E7
:1059300014B1D4E90010884770BD000010B50248CA
:10594000FDF7D8FE10BD0000F41C002070B5054620
:10595000AC6B0020E085E0842046FDF7C9FE70BDF9
:1059600070B506460025B46B20684069C0F3C015C9
:1059700094F83900212805D125B10020E084204683
:1059800000F082F820684069C0F3801594F83A006E
:10599000222805D125B10020E085204600F054F8EA
:1059A000E06B40F01000E0632046FDF7A1FE70BD03
:1059B00070B50546AC6B2868006800F48070B0B91B
:1059C0000020E0852068C06820F480702168C860ED
:1059D0002068406920F00100216848612068406922
:1059E00020F0400021684861202084F83A002046D9
:1059F000FEF758F870BD70B50446A56B2846FEF753
:105A000089F870BD70B50546AC6B2868006800F475
:105A1000807070B90020E0842068406920F0800028
:105A2000216848612068C06840F040002168C86073
:105A300002E02046FEF7EAF870BD70B50446A56B9B
:105A40002846FEF707F970BD0168C96821F4907116
:105A50000268D1600168496921F001010268516161
:105A6000202180F83A10704710B504462068C068BD
:105A700020F040002168C860202084F839002046CA
:105A8000FEF7C4F8002010BD0168C96821F0C0010C
:105A90000268D160202180F83910704770B5044643
:105AA00094F83A00222844D1A068B0F5805F13D161
:105AB000A56A206940B920684068C0F308002880C2
:105AC000A06A801CA06219E020684068C0B22880EB
:105AD000A06A401CA06211E0206938B920684068C3
